:0400000086EF00F097
:100008002882FACF01F0FBCF02F0E9CF03F0EACF64
:1000180004F0E1CF05F0E2CF06F0D9CF07F0DACF50
:1000280008F0F3CF09F0F4CF0AF0F6CF0BF0F7CFD2
:100038000CF0F8CF0DF0F5CF0EF028C00FF029C066
:1000480010F02AC011F02BC012F09EAA35D0AECF06
:1000580025F027502518D8A408D0000E1E6E010ED2
:100068001D6E000E206E000E1F6E26502518D8A497
:100078000AD01D041E10D8A406D0000E1E6E000E55
:100088001D6E010E236E1D041E10D8A415D0180E67
:100098001F24D96E000E2020DA6E25C0DFFF1F4A0C
:1000A800202A050E1F182010D8A406D0000E206E96
:1000B800000E1F6E020E186E12C02BF011C02AF02F
:1000C80010C029F00FC028F00EC0F5FF0DC0F8FFD2
:1000D8000CC0F7FF0BC0F6FF0AC0F4FF09C0F3FF1E
:1000E80008C0DAFF07C0D9FF06C0E2FF05C0E1FF7C
:1000F80004C0EAFF03C0E9FF02C0FBFF01C0FAFF2A
:100108002892110088EF00F03E0EF66E010EF76E91
:10011800000EF86E0900F5CF26F00900F5CF27F09C
:1001280000EE18F00E0EEE6AE806FDE1289028921F
:0A0138000001A0EF00F0232AFFD71A
:020000040020DA
:08000000FFFFFFFFFFFFFFFF00
:020000040030CA
:0E000000FF280E1EFF8881FF034003E003402F
:00000001FF
