:0400000084EF00F099
:100008003982FACF01F0FBCF02F0E9CF03F0EACF53
:1000180004F0E1CF05F0E2CF06F0D9CF07F0DACF50
:1000280008F0F3CF09F0F4CF0AF0F6CF0BF0F7CFD2
:100038000CF0F8CF0DF0F5CF0EF039C00FF03AC044
:1000480010F03BC011F03CC012F09EAA33D0AECFE6
:1000580036F038503618D8A408D0000E2F6E010E8E
:100068002E6E000E316E000E306E37503618D8A442
:100078000AD02E042F10D8A406D0000E2F6E000E22
:100088002E6E010E346E2E042F10D8A413D0280E15
:100098003024D96E000E3120DA6E36C0DFFF304AC8
:1000A800312A060E30183110D8A404D0000E316E53
:1000B800000E306E12C03CF011C03BF010C03AF098
:1000C8000FC039F00EC0F5FF0DC0F8FF0CC0F7FFE8
:1000D8000BC0F6FF0AC0F4FF09C0F3FF08C0DAFF3F
:1000E80007C0D9FF06C0E2FF05C0E1FF04C0EAFF70
:1000F80003C0E9FF02C0FBFF01C0FAFF39921100FB
:100108003AEF01F059EC01F03404D8A4FDD7000E01
:10011800346E29C035F02BC032F02CC033F04FD0EC
:100128003250010DA40E266E3F0E276EF350262680
:10013800F45027223350010DF3502624196EF45041
:1001480027201A6EEBEC00F0DFD73250010D830E3A
:10015800266E3F0E276EF3502626F4502722335082
:10016800010DF3502624196EF45027201A6EEBEC7B
:1001780000F0CAD7DF0E196E3F0E1A6EEBEC00F0D6
:10018800C40E196E3F0E1A6EEBEC00F08D0E196E50
:100198003E0E1A6EEBEC00F0F00E196E3F0E1A6E62
:1001A800EBEC00F0F80E196E3F0E1A6EEBEC00F057
:1001B800480E196E3F0E1A6EEBEC00F0A5D73550BD
:1001C800300AD8B4ADD7010AD8B4BFD7D3D719C02D
:1001D80013F01AC014F01BEC01F013C01DF014C08A
:1001E8001EF0000E206E000E1F6E10D01F50192436
:1001F8001B6E20501A201C6E1BC0F6FF1CC0F7FF98
:100208000800F55053EC01F01F4A202A1D501F5CCE
:100218002050800A1B6E1E50800A1B58D8A0E6D7B3
:100228000D0E53EC01F00A0E53EC01F0120013C04E
:1002380017F014C018F002D0174A182A17C0F6FF92
:1002480018C0F7FF0800F5500009D8A4F5D713C067
:1002580015F014C016F0151E161E154A162A17504A
:100268001524136E18501620146E1200BC0EF66E6C
:10027800020EF76E000EF86E0900F5CF37F0090090
:10028800F5CF38F000EE28F00F0EEE6AE806FDE133
:1002980039903992000EF86E000186EF00F0136E67
:1002A800ACA2FED713C0ADFF1200F28EF28C9D8A6D
:0602B800D08E1200232A83
:103E8C00002A202D20F1E8ECE2EEEB20EDE0F7E04B
:103E9C00EBE020EAEEECE0EDE4FB2C20EDEEECE5C3
:103EAC00F020EFEEE4EAEBFEF7E5EDE8FF20F3F1AE
:103EBC00E8EBE8F2E5EBFF2830202D20EEF2EAEB00
:103ECC00FEF7E8F2FC2C2031202D20EFEEE4EAEB9B
:103EDC00FEF7E8F2FC292C20EFF0EEE1E5EB2CE705
:103EEC00EDE0F7E5EDE8E520E0F2F2E5EDFEE0F2DD
:103EFC00EEF0E020E220E4E5F6E8E1E5EBE0F52089
:103F0C0028EEF220302C3520E4EE2033312C3520F5
:103F1C00F120F8E0E3EEEC20302C35292C20232086
:103F2C002D20F1E8ECE2EEEB20E7E0E2E5F0F8E53D
:103F3C00EDE8FF20EAEEECE0EDE4FB00F22EE52EDE
:103F4C0020EFEEE4EAEBFEF7E8F2FC20F3F1E8EB0D
:103F5C00E8F2E5EBFC2C20E7EDE0F7E5EDE8E520F9
:103F6C00E0F2F2E5EDFEE0F2EEF0E020333020E49A
:103F7C00E5F6E8E1E5EB00D3F1E8EBE8F2E5EBFC84
:103F8C0020EFEEE4EAEBFEF7E5ED2C20E0F2F2E5B3
:103F9C00EDFEE0F2EEF03A00D3F1E8EBE8F2E5EBFF
:103FAC00FC20EEF2EAEBFEF7E5ED2C20E0F2F2E578
:103FBC00EDFEE0F2EEF03A00CEF2EFF0E0E2F2E5E8
:103FCC0020EAEEECE0E4F320E220F4EEF0ECE0F298
:103FDC00E53A00CDE5E2E5F0EDE0FF20EAEEECE0BD
:103FEC00EDE4E000CFF0E8ECE5F03A002A312033C4
:043FFC00302300006E
:020000040020DA
:08000000FFFFFFFFFFFFFFFF00
:020000040030CA
:0E000000FF271F1FFF8885FF03C003E003409A
:00000001FF
